:100000003FC059C02AC157C056C055C054C053C084
:1000100078C151C050C04FC04EC04DC04CC04BC045
:100020004AC049C048C008000000BE922449123EA0
:10003000ABAAAA2ABECDCCCC4C3E00000080BEAB01
:10004000AAAAAA3E00000000BF000000803F0000F6
:10005000000000084178D3BB4387D1133D190E3C03
:10006000C3BD4282AD2B3E68EC8276BED98FE1A93A
:100070003E4C80EFFFBE01C4FF7F3F000000000048
:1000800011241FBECFE5D4E0DEBFCDBF11E0A0E656
:10009000B0E0EEEDF6E102C005900D92AA36B10790
:1000A000D9F711E0AAE6B1E001C01D92A037B1076F
:1000B000E1F702D012CBA4CF9F92AF92BF92CF9222
:1000C000DF92EF92FF920F931F93CF93DF9311BABA
:1000D000939A84B3806384BBAD9A80E1982EC9E182
:1000E000D0E081E03FD06FD0A49A25B3292525BB6D
:1000F000A0E0B0E0BC01CD0198D65B016C0120E02E
:1001000030E04AE753E49ED37B018C0120E030E0ED
:1001100040E85FE3B4D588231CF461E070E01EC0C2
:10012000C801B70120E03FEF4FE757E452D518165A
:1001300094F4C601B50120E030E040E251E482D3FE
:10014000BDD105C0CE010197F1F761507040611536
:100150007105C1F7C6CFC801B701B0D1CB01019776
:10016000F1F7BFCF11BA12BA95B7946095BF9BB79C
:1001700090689BBF91B321E030E0082E02C0220FAF
:10018000331F0A94E2F7922B91BB8093600081E0C9
:10019000809361007894089582B321E030E000906C
:1001A000600002C0220F331F0A94E2F7822B82BB49
:1001B00083E08A95F1F782B32095282322BB8AEF4A
:1001C0008A95F1F70895E8DF09C080916A0190915E
:1001D0006B01892B19F060E070E03DC080916100F7
:1001E000882379F460916C0170916D0180916E01AA
:1001F00090916F0120E030E040E050E0BFD48823D0
:1002000021F384ED90E30197F1F71EBC21B381E067
:1002100090E00090600002C0880F991F0A94E2F7F6
:100220008095822381BB60916C0170916D018091FA
:100230006E0190916F0120E030E040E05FE302D377
:1002400020E030E84BEA53E4FDD220E030E44CE11A
:1002500056E4EDD333D1CB0108951F920F920FB620
:100260000F9211242F933F934F935F936F937F933C
:100270008F939F93AF93BF93EF93FF938091610010
:100280008130B9F48EB581608EBD89B7846089BF35
:100290001DBC1CBC1092610080E090E0A0E0B0E0CA
:1002A00080936C0190936D01A0936E01B0936F01E8
:1002B00017C06CB57DB580E090E0B7D560936C0158
:1002C00070936D0180936E0190936F011EBC81E06D
:1002D0008093610010926B0110926A011DBC1CBCDE
:1002E000FF91EF91BF91AF919F918F917F916F910E
:1002F0005F914F913F912F910F900FBE0F901F90E4
:1003000018951F920F920FB60F9211248F939F93FF
:1003100080916A0190916B01019690936B0180939B
:100320006A011DBC1CBC8EB581608EBDA39A85B3CD
:1003300098E0892785BB9F918F910F900FBE0F90FA
:100340001F90189588BB85B3887F85BBAA9A80E5E6
:1003500093EC0197F1F785B3887F85BB089584B34B
:10036000876084BB8FEF81BB88E390E0EBDF81E0A7
:1003700090E0E8DF80E890E0E5DF8EE090E0E2DF0B
:1003800086E090E0DFDF089588BBA89A85B385609A
:1003900085BB80E593EC0197F1F7A89A0895CF9378
:1003A000DF93EC0102C0F0DF219688818823D9F722
:1003B000DF91CF910895CF92DF92EF92FF920F934A
:1003C0001F93CF93DF938C01B801882777FD809529
:1003D000982F80D4F2D720E030E040E85FE30BD2E2
:1003E000D3D47B01C0E0D0E0E0E0F0E06B01089402
:1003F000C108D10819C0C8016AE070E080D7E80FD1
:10040000F91FCC15DD0599F0CF01880F991F23E066
:10041000EE0FFF1F2A95E1F7E80FF91FC8016AE008
:1004200070E06DD78B012196CE15DF0524F3CF0147
:10043000DF91CF911F910F91FF90EF90DF90CF90C0
:100440000895CF92DF92EF92FF920F931F93CF9375
:10045000DF936C01B0DFEC01BE01882777FD80954A
:10046000982F38D4AAD720E030E040E85FE3C3D12A
:100470008BD47B0100E010E00DC0CE016AE070E09B
:100480003ED7805D81DFCE016AE070E038D7EB01B6
:100490000F5F1F4F0E151F0584F3C6016AE070E061
:1004A0002ED7892B11F480E36FDFDF91CF911F915D
:1004B0000F91FF90EF90DF90CF900895EF92FF9211
:1004C0000F931F937B018C0120E030E040E05FE45C
:1004D000ABD388237CF0C801B70120E030E040E0D6
:1004E0005FE45ED151D49B01AC01205030404040CC
:1004F000504805C0C801B70147D49B01AC01B90100
:10050000CA011F910F91FF90EF900895A0E0B0E015
:10051000EBE8F2E01BC7DC012B01FA019C91923061
:1005200008F439C1EB018881823008F433C194307A
:1005300069F4843009F02FC111969C91119789813B
:10054000981709F428C1A2E6B0E025C1843009F467
:1005500021C18230A9F4923009F01DC19A01AD0188
:1005600088E0EA010990AE01E90109929E018150FB
:10057000C1F7E201898111969C918923818308C189
:10058000923009F407C112962D903C901397EB011D
:100590008A819B811496AD90BD90CD90DC90179789
:1005A000EC80FD800E811F819101281B390BB90160
:1005B00037FF04C066277727621B730B6032710513
:1005C0000CF061C0121613066CF537014801062EB7
:1005D00004C096948794779467940A94D2F721E0A4
:1005E00030E040E050E004C0220F331F441F551F8D
:1005F0006A95D2F721503040404050402E213F2193
:1006000040235123211531054105510521F021E0F9
:1006100030E040E050E079018A01E628F728082917
:1006200019293CC0232BD1F1260E371E3501460176
:10063000062E04C096948794779467940A94D2F710
:1006400021E030E040E050E004C0220F331F441F9F
:10065000551F6A95D2F721503040404050402A2122
:100660003B214C215D21211531054105510521F02A
:1006700021E030E040E050E059016A01A628B728A7
:10068000C828D9280BC0821593052CF01C01AA2478
:10069000BB24650103C0EE24FF24870111969C91C1
:1006A000D20111968C91981709F445C0992339F01D
:1006B000A80197012A193B094C095D0906C0A6014A
:1006C00095012E193F09400B510B57FD08C01182AF
:1006D0003382228224833583468357831DC081E081
:1006E00081833382228288279927DC01821B930B26
:1006F000A40BB50B84839583A683B7830DC0220F0B
:10070000331F441F551F24833583468357838281BB
:100710009381019793838283248135814681578118
:10072000DA01C9010197A109B1098F5F9F4FAF4F4E
:10073000BF4328F30BC0918333822282EA0CFB1C57
:100740000C1D1D1DE482F5820683178383E08083E0
:10075000248135814681578157FF1AC0C901AA27D4
:1007600097FDA095BA2F81709070A070B0705695CB
:10077000479537952795822B932BA42BB52B8483F4
:100780009583A683B7838281938101969383828325
:10079000DF0101C0D201CD01CDB7DEB7E2E1F2C584
:1007A000A0E2B0E0E5EDF3E0DDC569837A838B83F9
:1007B0009C832D833E834F835887E9E0EE2EF12CF6
:1007C000EC0EFD1ECE010196B701C8D48E010F5E5E
:1007D0001F4FCE010596B801C1D48A8991E08927BF
:1007E0008A8BC701B801AE01475E5F4F8FDEE1D350
:1007F000A096E6E0D3C5A0E2B0E0E0E0F4E0B2C548
:1008000069837A838B839C832D833E834F835887B0
:10081000F9E0EF2EF12CEC0EFD1ECE010196B70192
:100820009DD48E010F5E1F4FCE010596B80196D460
:10083000C701B801AE01475E5F4F68DEBAD3A0962C
:10084000E6E0ACC5A0E2B0E0E7E2F4E07FC5698392
:100850007A838B839C832D833E834F835887CE017D
:100860000196BE01675F7F4F79D4CE010596BE0128
:100870006F5E7F4F73D49985923088F0898982307A
:10088000C8F0943019F4823051F404C0843029F453
:10089000923081F482E690E0C6C0923049F420E0C4
:1008A0009A858A89981321E02A87CE010996BBC0D0
:1008B000823049F420E09A858A89981321E02A8BB6
:1008C000CE014196B0C02D843E844F8458886D88F7
:1008D0007E888F88988CEE24FF248701AA24BB246D
:1008E000650140E050E060E070E0E0E0F0E0C10170
:1008F00081709070892BE9F0E60CF71C081D191D1A
:100900009A01AB012A0D3B1D4C1D5D1D80E090E05E
:10091000A0E0B0E0E614F7040805190520F481E032
:1009200090E0A0E0B0E0BA01A901480F591F6A1F8A
:100930007B1FAA0CBB1CCC1CDD1C97FE08C081E0F1
:1009400090E0A0E0B0E0A82AB92ACA2ADB2A3196B2
:10095000E032F10549F0660C771C881C991C56940E
:10096000479437942794C3CFFA85EA892B893C8929
:100970008B859C85280F391F2E5F3F4F17C0CA01FA
:1009800081709070892B61F016950795F794E79424
:1009900080E090E0A0E0B0E8E82AF92A0A2B1B2BBF
:1009A00076956795579547952F5F3F4F77FDE7CF32
:1009B0000CC0440F551F661F771F17FD4160EE0CDA
:1009C000FF1C001F111F21503040403090E059079C
:1009D00090E0690790E4790760F32B8F3C8FDB018F
:1009E000CA018F779070A070B07080349105A10516
:1009F000B10561F447FD0AC0E114F10401051105D8
:100A000029F0405C5F4F6F4F7F4F40781A8EFE1782
:100A100011F081E08A8F4D8F5E8F6F8F78A383E016
:100A2000898FCE014996C5D2A096E2E1ABC4A8E178
:100A3000B0E0ECE1F5E092C469837A838B839C8318
:100A40002D833E834F835887B9E0EB2EF12CEC0EBB
:100A5000FD1ECE010196B70181D38E010F5E1F4F9F
:100A6000CE010596B8017AD32985223008F47EC0DC
:100A70003989323010F4B8017CC08A859A89892777
:100A80008A87243011F0223031F4231709F06EC028
:100A900062E670E06EC0343039F41D861E861F8613
:100AA000188A1C861B8604C0323021F484E08987B2
:100AB000B7015FC02B853C858B899C89281B390B2E
:100AC0003C872B87ED84FE840F851889AD88BE880E
:100AD000CF88D88CEA14FB040C051D0540F4EE0CFD
:100AE000FF1C001F111F215030403C872B8720E046
:100AF00030E040E050E080E090E0A0E0B0E460E072
:100B000070E0EA14FB040C051D0540F0282B392B7E
:100B10004A2B5B2BEA18FB080C091D09B695A79513
:100B200097958795EE0CFF1C001F111F6F5F7F4F7D
:100B30006F31710531F7DA01C9018F779070A070BC
:100B4000B07080349105A105B10561F427FD0AC09C
:100B5000E114F1040105110529F0205C3F4F4F4FCE
:100B60005F4F20782D873E874F87588BBE01675F88
:100B70007F4FCB011ED26896EAE00CC4A8E1B0E03A
:100B8000E3ECF5E0EFC369837A838B839C832D8349
:100B90003E834F83588789E0E82EF12CEC0EFD1E32
:100BA000CE010196B701DAD28E010F5E1F4FCE0142
:100BB0000596B801D3D28985823038F08989823090
:100BC00020F0C701B80142D301C081E06896E6E099
:100BD000E5C3A8E1B0E0EEEEF5E0C4C369837A8333
:100BE0008B839C832D833E834F83588789E0E82E37
:100BF000F12CEC0EFD1ECE010196B701AFD28E0195
:100C00000F5E1F4FCE010596B801A8D289858230AC
:100C100038F08989823020F0C701B80117D301C0AC
:100C20008FEF6896E6E0BAC3A8E1B0E0E9E1F6E04C
:100C300099C369837A838B839C832D833E834F83FF
:100C4000588789E0E82EF12CEC0EFD1ECE010196AE
:100C5000B70184D28E010F5E1F4FCE010596B801F9
:100C60007DD28985823038F08989823020F0C701B1
:100C7000B801ECD201C08FEF6896E6E08FC3A8E11F
:100C8000B0E0E4E4F6E06EC369837A838B839C83EF
:100C90002D833E834F83588789E0E82EF12CEC0E9C
:100CA000FD1ECE010196B70159D28E010F5E1F4F76
:100CB000CE010596B80152D28985823038F08989F3
:100CC000823020F0C701B801C1D201C081E068962E
:100CD000E6E064C3A8E0B0E0EFE6F6E040C39B01C5
:100CE000AC0183E08983DA01C9018827B7FD8395C8
:100CF0009927AA27BB27B82E211531054105510593
:100D000019F482E0898339C08823A9F0203080E07B
:100D1000380780E0480780E8580729F460E070E071
:100D200080E09FEC2EC0EE24FF248701E21AF30A34
:100D3000040B150B02C079018A018EE1C82ED12C5B
:100D4000DC82CB82ED82FE820F831887C801B70157
:100D5000E1D001971816190684F4082E04C0EE0C91
:100D6000FF1C001F111F0A94D2F7ED82FE820F8331
:100D70001887C81AD90ADC82CB82BA82CE010196C2
:100D800018D12896E9E007C3ACE0B0E0E9ECF6E062
:100D9000EDC269837A838B839C83CE010196BE0169
:100DA0006B5F7F4FDBD18D81823061F1823050F1FA
:100DB000843021F48E81882351F12EC02F81388513
:100DC00037FD20C06E812F3131051CF06623F9F00C
:100DD00023C08EE190E0821B930B29853A854B85D9
:100DE0005C8504C056954795379527958A95D2F727
:100DF0006623B1F050954095309521953F4F4F4F68
:100E00005F4F0EC020E030E040E050E009C02FEF1F
:100E10003FEF4FEF5FE704C020E030E040E050E8F4
:100E2000B901CA012C96E2E0BDC2A8E0B0E0EAE157
:100E3000F7E094C27B018C01611571058105910574
:100E400019F482E089835FC083E089838EE1C82E34
:100E5000D12CDC82CB82ED82FE820F831887C80101
:100E6000B70158D0FC013197F7FF3BC02227332749
:100E70002E1B3F0B57016801022E04C0D694C79465
:100E8000B794A7940A94D2F740E050E060E070E095
:100E900081E090E0A0E0B0E004C0880F991FAA1F95
:100EA000BB1F2A95D2F70197A109B1098E219F2175
:100EB000A023B1230097A105B10521F041E050E046
:100EC00060E070E04A295B296C297D294D835E83AF
:100ED0006F8378878EE190E08E1B9F0B9C838B83C2
:100EE00012C0309781F00E2E04C0EE0CFF1C001FC4
:100EF000111F0A94D2F7ED82FE820F831887CE1A53
:100F0000DF0ADC82CB821A82CE01019652D028966B
:100F1000EAE040C2EF92FF920F931F937B018C0196
:100F200080E0E81680E0F80681E0080780E0180716
:100F300088F48FEFE816F1040105110531F028F06F
:100F400088E090E0A0E0B0E017C080E090E0A0E092
:100F5000B0E012C080E0E81680E0F80680E0080704
:100F600081E0180728F088E190E0A0E0B0E004C03C
:100F700080E190E0A0E0B0E020E230E040E050E02E
:100F8000281B390B4A0B5B0B04C016950795F79489
:100F9000E7948A95D2F7F701E659FF4F8081281B25
:100FA000310941095109C9011F910F91FF90EF903B
:100FB0000895DF92EF92FF920F931F93FC01E4805C
:100FC000F58006811781D1808081823048F480E0ED
:100FD00090E0A0E1B0E0E82AF92A0A2B1B2BA5C07B
:100FE000843009F49FC0823021F4EE24FF2487016D
:100FF00005C0E114F1040105110519F4E0E0F0E089
:1010000096C0628173819FEF623879070CF05BC0F4
:1010100022E83FEF261B370B2A3131052CF020E068
:1010200030E040E050E02AC0B801A701022E04C021
:1010300076956795579547950A94D2F781E090E0A9
:10104000A0E0B0E004C0880F991FAA1FBB1F2A951B
:10105000D2F70197A109B1098E219F21A023B123C5
:101060000097A105B10521F081E090E0A0E0B0E09B
:101070009A01AB01282B392B4A2B5B2BDA01C901D2
:101080008F779070A070B07080349105A105B10584
:1010900039F427FF09C0205C3F4F4F4F5F4F04C01A
:1010A000215C3F4F4F4F5F4FE0E0F0E02030A0E089
:1010B0003A07A0E04A07A0E45A0710F0E1E0F0E0A8
:1010C00079018A0127C06038710564F5FB01E15898
:1010D000FF4FD801C7018F779070A070B070803437
:1010E0009105A105B10539F4E7FE0DC080E490E05B
:1010F000A0E0B0E004C08FE390E0A0E0B0E0E80E34
:10110000F91E0A1F1B1F17FF05C016950795F794B8
:10111000E794319687E016950795F794E7948A95BA
:10112000D1F705C0EE24FF248701EFEFF0E06E2F2A
:10113000679566276795902F9F77D794DD24D7947E
:101140008E2F8695492F462B582F5D29B701CA014E
:101150001F910F91FF90EF90DF900895FC01DB014C
:10116000408151812281622F6F7770E0221F2227F8
:10117000221F9381892F880F822B282F30E0991FFF
:101180009927991F11969C93119721153105A9F55F
:10119000411551056105710511F482E037C082E8FF
:1011A0009FEF13969C938E9312979A01AB0167E081
:1011B000220F331F441F551F6A95D1F783E08C938C
:1011C0000DC0220F331F441F551F12968D919C9105
:1011D0001397019713969C938E931297203080E07B
:1011E000380780E0480780E4580758F314962D9399
:1011F0003D934D935C93179708952F3F310579F4F4
:10120000411551056105710519F484E08C93089529
:1012100064FF03C081E08C9312C01C9210C02F5752
:10122000304013963C932E93129783E08C9387E083
:10123000440F551F661F771F8A95D1F77064149667
:101240004D935D936D937C93179708951F93DC01E5
:10125000FB019C91923008F447C08081823008F4F1
:1012600043C0943051F411961C91843099F58181DA
:10127000682F70E0611B71093FC0843021F092300B
:1012800031F48230B9F18181882389F12DC0119622
:101290001C9111978230F1F081811817D9F41296C0
:1012A0002D913C911397828193818217930794F03B
:1012B00028173907BCF014968D919D910D90BC9123
:1012C000A02D2481358146815781281739074A0787
:1012D0005B0718F4112341F00AC082179307A40793
:1012E000B50740F4112319F061E070E005C06FEF1D
:1012F0007FEF02C060E070E0CB011F91089597FB83
:10130000092E07260AD077FD04D00CD006D0002085
:101310001AF4709561957F4F0895F6F79095819531
:101320009F4F0895AA1BBB1B51E107C0AA1FBB1FFB
:10133000A617B70710F0A61BB70B881F991F5A9561
:10134000A9F780959095BC01CD0108952F923F9209
:101350004F925F926F927F928F929F92AF92BF92C5
:10136000CF92DF92EF92FF920F931F93CF93DF9371
:10137000CDB7DEB7CA1BDB0B0FB6F894DEBF0FBECE
:10138000CDBF09942A88398848885F846E847D841B
:101390008C849B84AA84B984C884DF80EE80FD801D
:1013A0000C811B81AA81B981CE0FD11D0FB6F89493
:1013B000DEBF0FBECDBFED0108950AD029ED3BE59C
:1013C0004EED5EE33FCA0EF00AC117C1689401C139
:1013D00063D1C8F39923D1F3C6F3DF93CF931F935F
:1013E0000F93FF92C92FDD2788232AF02197660FDC
:1013F000771F881FDAF720E030E040E85FEB9FE3DB
:10140000883920F0803E30F021968F77F4D9E6E2DB
:10141000F0E003C0F0D9E3E5F0E0F2D08B01BE01CB
:10142000EC01FB2E6F5771097595771F880B990B8F
:1014300051DC28E132E741E35FE314D0AF2D98019E
:10144000AE01FF900F911F91CF91DF916FD00BC133
:10145000FCD028F001D118F0952309F0BAC0CDC016
:10146000112435C111D1A0F3959FD1F3950F50E010
:10147000551F629FF001729FBB27F00DB11D639F46
:10148000AA27F00DB11DAA1F649F6627B00DA11DEC
:10149000661F829F2227B00DA11D621F739FB00D92
:1014A000A11D621F839FA00D611D221F749F332702
:1014B000A00D611D231F849F600D211D822F762F9B
:1014C0006A2F11249F5750408AF0E1F088234AF098
:1014D000EE0FFF1FBB1F661F771F881F91505040E4
:1014E000A9F79E3F510570F074C0F1C05F3FECF367
:1014F000983EDCF3869577956795B795F795E795D0
:101500009F5FC1F7FE2B880F911D9695879597F9E0
:1015100008959BD030F0A0D020F031F49F3F11F41B
:101520001EF46BC00EF4E095E7FB53C0E92FACD07E
:1015300080F3BA17620773078407950718F071F4F0
:101540009EF5C4C00EF4E0950B2EBA2FA02D0B0112
:10155000B90190010C01CA01A0011124FF27591BF8
:1015600099F0593F50F4503E68F11A16F040A22FFE
:10157000232F342F4427585FF3CF4695379527956F
:10158000A795F0405395C9F77EF41F16BA0B620B6E
:10159000730B840BBAF09150A1F0FF0FBB1F661FB5
:1015A000771F881FC2F70EC0BA0F621F731F841FF8
:1015B00048F4879577956795B795F7959E3F08F01E
:1015C000B3CF9395880F08F09927EE0F97958795DD
:1015D000089597F99F6780E870E060E008959F3F65
:1015E00031F0915020F4879577956795B795880FDE
:1015F000911D9695879597F908959FEF80EC089532
:10160000DF93CF931F930F93FF92EF92DF927B01B3
:101610008C01689405C0DA2EEF0124DFFE01E89406
:10162000A5912591359145915591AEF3EF017EDF5E
:10163000FE019701A801DA9479F7DF90EF90FF900F
:101640000F911F91CF91DF91089500240A941616EF
:10165000170618060906089500240A9412161306A0
:10166000140605060895092E0394000C11F488232E
:1016700052F0BB0F40F4BF2B11F460FF04C06F5F4A
:101680007F4F8F4F9F4F089557FD9058440F551F20
:1016900059F05F3F71F04795880F97FB991F61F0F4
:1016A0009F3F79F087950895121613061406551F6B
:1016B000F2CF4695F1DF08C0161617061806991FD7
:1016C000F1CF86957105610508940895E894BB27CC
:0E16D00066277727CB0197F90895F894FFCF8E
:1016DE0001010000000000000000000102020303EF
:1016EE0003030404040404040404050505050505A8
:1016FE000505050505050505050506060606060686
:10170E00060606060606060606060606060606066B
:10171E000606060606060606060607070707070755
:10172E00070707070707070707070707070707073B
:10173E00070707070707070707070707070707072B
:10174E00070707070707070707070707070707071B
:10175E000707070707070707070708080808080805
:10176E0008080808080808080808080808080808EB
:10177E0008080808080808080808080808080808DB
:10178E0008080808080808080808080808080808CB
:10179E0008080808080808080808080808080808BB
:1017AE0008080808080808080808080808080808AB
:1017BE00080808080808080808080808080808089B
:1017CE00080808080808080808080808080808088B
:0A17DE0008080808080808080808B1
:040000030000016494
:00000001FF
