:100000003FC059C0DFC057C056C055C054C053C0D0
:1000100029C151C050C04FC04EC04DC04CC04BC094
:100020004AC049C048C008000000BE922449123EA0
:10003000ABAAAA2ABECDCCCC4C3E00000080BEAB01
:10004000AAAAAA3E00000000BF000000803F0000F6
:10005000000000084178D3BB4387D1133D190E3C03
:10006000C3BD4282AD2B3E68EC8276BED98FE1A93A
:100070003E4C80EFFFBE01C4FF7F3F000000000048
:1000800011241FBECFE5D4E0DEBFCDBF10E0A0E657
:10009000B0E0EEEEF9E002C005900D92A236B10795
:1000A000D9F720E0A2E6B0E001C01D92A836B20761
:1000B000E1F7C9D19AC4A4CF11BA12BA95B7946026
:1000C00095BF9BB790689BBF91B321E030E0082EAD
:1000D00002C0220F331F0A94E2F7292B21BB809321
:1000E000610081E0809360007894089542B381E0DC
:1000F00090E09C010090610002C0220F331F0A941F
:10010000E2F7242B22BB23E02A95F1F7000022B36B
:100110000090610002C0880F991F0A94E2F7809551
:10012000822382BB8AEF8A95F1F70895DFDF07C04B
:100130008091620090916300892B09F040C080910A
:10014000600081110EC06091640070916500809123
:1001500066009091670020E030E0A901EFD188238C
:1001600039F383ED90E30197F1F700C000001EBC66
:1001700021B381E090E00090610002C0880F991FD8
:100180000A94E2F78095822381BB609164007091AC
:100190006500809166009091670020E030E040E0CB
:1001A0005FE366D320E030E84BEA53E461D320E01C
:1001B00030E44CE156E4C6D132D2CB01089580E060
:1001C00090E008951F920F920FB60F9211242F9373
:1001D0003F934F935F936F937F938F939F93AF93CF
:1001E000BF93EF93FF9380916000813099F48EB5B7
:1001F00081608EBD89B7846089BF1DBC1CBC109214
:1002000060001092640010926500109266001092D7
:10021000670017C06CB57DB580E090E02CD260938C
:1002200064007093650080936600909367001EBC25
:1002300081E08093600010926300109262001DBC08
:100240001CBCFF91EF91BF91AF919F918F917F91D6
:100250006F915F914F913F912F910F900FBE0F9033
:100260001F9018951F920F920FB60F9211248F9323
:100270009F93809162009091630001969093630038
:10028000809362001DBC1CBC8EB581608EBDA29A9D
:1002900095B384E0892785BB9F918F910F900FBE06
:1002A0000F901F90189588BB15BA84E085BB8FE42A
:1002B00093EC0197F1F700C0000015BA08958FEF95
:1002C00084BB81BB88E390E0EEDF81E090E0EBDF70
:1002D00080E890E0E8DF8EE090E0E5DF86E090E007
:1002E000E2DF089588BB81E085BB95E095BBEFE434
:1002F000F3EC3197F1F700C0000085BB08958F92B1
:100300009F92AF92BF92CF92DF92EF92FF920F93A4
:100310001F93CF93DF93EC01BC01990F880B990BCE
:10032000ACD15BD220E030E040E85FE3A3D072D1F3
:100330004B015C016B01161617065CF5CE016AE0F5
:1003400070E02CD39C01740181E0E81AF10819F1E6
:10035000E0E0F0E00AE010E008C0CE01B8011ED3F2
:10036000280F391FEE15FF05B1F0C901880F991F3D
:10037000220F331F220F331F220F331F280F391F65
:10038000CE01B8010BD3EB013196EC15FD0529F731
:1003900002C020E030E0C901DF91CF911F910F91A1
:1003A000FF90EF90DF90CF90BF90AF909F908F9095
:1003B00008958F929F92AF92BF92CF92DF92EF9269
:1003C000FF920F931F93CF93DF939C016AE070E03D
:1003D000E5D24C01C90193DFEC01BC01990F880BF8
:1003E000990B4BD1FAD120E030E040E85FE342D0F6
:1003F00011D16B0116161706ACF400E010E00F2EB9
:10040000FAE0AF2EB12CF02DCE01B501C7D2E62E09
:10041000F72E805D67DFCE2DDF2D0F5F1F4F0C1590
:100420001D0591F7892811F480E35CDFDF91CF91FE
:100430001F910F91FF90EF90DF90CF90BF90AF9002
:100440009F908F90089511BA939A81E035DE6EDE09
:10045000EC0183ED90E30197F1F700C000002FDF7E
:10046000CE01A7DF83EC99E00197F1F700C000000F
:10047000ECCF5058BB27AA270ED075C166D130F0FB
:100480006BD120F031F49F3F11F41EF45BC10EF4E8
:10049000E095E7FB51C1E92F77D180F3BA176207E6
:1004A00073078407950718F071F49EF58FC10EF459
:1004B000E0950B2EBA2FA02D0B01B90190010C0174
:1004C000CA01A0011124FF27591B99F0593F50F48C
:1004D000503E68F11A16F040A22F232F342F4427E4
:1004E000585FF3CF469537952795A795F0405395DC
:1004F000C9F77EF41F16BA0B620B730B840BBAF0AC
:100500009150A1F0FF0FBB1F661F771F881FC2F716
:100510000EC0BA0F621F731F841F48F4879577952A
:100520006795B795F7959E3F08F0B3CF9395880FE1
:1005300008F09927EE0F979587950895D9D008F47C
:1005400081E008950CD00FC107D140F0FED030F00B
:1005500021F45F3F19F0F0C0511139C1F3C014D13B
:1005600098F39923C9F35523B1F3951B550BBB277A
:10057000AA2762177307840738F09F5F5F4F220F27
:10058000331F441FAA1FA9F333D00E2E3AF0E0E820
:1005900030D091505040E695001CCAF729D0FE2F6C
:1005A00027D0660F771F881FBB1F261737074807FE
:1005B000AB07B0E809F0BB0B802DBF01FF279358B4
:1005C0005F4F2AF09E3F510568F0B6C000C15F3F03
:1005D000ECF3983EDCF3869577956795B795F7959C
:1005E0009F5FC9F7880F911D9695879597F9089594
:1005F000E1E0660F771F881FBB1F62177307840730
:10060000BA0720F0621B730B840BBA0BEE1F88F73E
:10061000E095089504D06894B111D9C00895BCD074
:1006200088F09F5790F0B92F9927B751A0F0D1F0DB
:10063000660F771F881F991F1AF0BA95C9F712C065
:10064000B13081F0C3D0B1E00895C0C0672F782FDA
:100650008827B85F39F0B93FCCF3869577956795D1
:10066000B395D9F73EF490958095709561957F4F3D
:100670008F4F9F4F0895E89409C097FB3EF49095E3
:100680008095709561957F4F8F4F9F4F9923A9F06B
:10069000F92F96E9BB279395F695879577956795FA
:1006A000B795F111F8CFFAF4BB0F11F460FF1BC03E
:1006B0006F5F7F4F8F4F9F4F16C0882311F096E9D1
:1006C00011C0772321F09EE8872F762F05C066237F
:1006D00071F096E8862F70E060E02AF09A95660F38
:1006E000771F881FDAF7880F9695879597F90895F1
:1006F000990F0008550FAA0BE0E8FEEF1616170633
:10070000E807F907C0F012161306E407F50798F09A
:10071000621B730B840B950B39F40A2661F0232BB3
:10072000242B252B21F408950A2609F4A140A6952F
:100730008FEF811D811D089597F99F6780E870E014
:1007400060E008959FEF80EC089500240A94161647
:10075000170618060906089500240A9412161306AF
:10076000140605060895092E0394000C11F488233D
:1007700052F0BB0F40F4BF2B11F460FF04C06F5F59
:100780007F4F8F4F9F4F089557FD9058440F551F2F
:1007900059F05F3F71F04795880F97FB991F61F003
:1007A0009F3F79F087950895121613061406551F7A
:1007B000F2CF4695F1DF08C0161617061806991FE6
:1007C000F1CF86957105610508940895E894BB27DB
:1007D00066277727CB0197F908950AD029ED3BE5E5
:1007E0004EED5EE345C00EF0A6C0ACCF6894A4CF3A
:1007F000D3DFC8F39923D1F3C6F3DF93CF931F93CD
:100800000F93FF92C92FDD2788232AF02197660FC7
:10081000771F881FDAF720E030E040E85FEB9FE3C6
:10082000883920F0803E30F021968F7723DEE6E293
:10083000F0E003C01FDEE3E5F0E08BD08B01BE01EA
:10084000EC01FB2E6F5771097595771F880B990B7B
:1008500014DF28E132E741E35FE316D0AF2D9801C2
:10086000AE01FF900F911F91CF91DF9114DE7BCFEE
:100870000BD079CF6ADF28F06FDF18F0952309F0ED
:100880005BCF60CF1124A3CF7FDFA0F3959FD1F37F
:10089000950F50E0551F629FF001729FBB27F00D2E
:1008A000B11D639FAA27F00DB11DAA1F649F662783
:1008B000B00DA11D661F829F2227B00DA11D621FD2
:1008C000739FB00DA11D621F839FA00D611D221F8C
:1008D000749F3327A00D611D231F849F600D211D70
:1008E000822F762F6A2F11249F5750408AF0E1F013
:1008F00088234AF0EE0FFF1FBB1F661F771F881F5C
:1009000091505040A9F79E3F510570F015CF5FCF31
:100910005F3FECF3983EDCF3869577956795B79546
:10092000F795E7959F5FC1F7FE2B880F911D969570
:10093000879597F908959F3F31F0915020F487955E
:1009400077956795B795880F911D9695879597F937
:100950000895DF93CF931F930F93FF92EF92DF924F
:100960007B018C01689405C0DA2EEF018DDFFE015A
:10097000E894A5912591359145915591AEF3EF01FC
:100980008ADDFE019701A801DA9479F7DF90EF90F4
:10099000FF900F911F91CF91DF91089597FB072E44
:1009A00016F4009406D077FD08D00BD007FC05D0D4
:1009B0003EF4909581959F4F0895709561957F4F76
:1009C0000895AA1BBB1B51E107C0AA1FBB1FA61796
:1009D000B70710F0A61BB70B881F991F5A95A9F7E8
:0E09E00080959095BC01CD010895F894FFCF4D
:0209EE00010402
:04000003000000B841
:00000001FF
