:100000000C942A000C9447000C94C3000C94F50047
:100010000C9447000C9447000C9447000C94470044
:100020000C9447000C942A010C9447000C94470050
:100030000C9447000C9447000C9447000C94470024
:100040000C9447000C9447000C9447000C94470014
:100050000C94470011241FBECFE5D8E0DEBFCDBF12
:1000600010E0A0E6B0E0E6EAF4E002C005900D92F0
:10007000A236B107D9F720E0A2E6B0E001C01D9298
:10008000AC36B207E1F70E9408020C9451020C94BE
:100090000000863079F41EBC84B7806484BF8BB7BF
:1000A00080628BBF8E9A86E08093610081E08093AE
:1000B000600017C01EBC95B7946095BF9BB7906851
:1000C0009BBF91B321E030E0082E02C0220F331F06
:1000D0000A94E2F7292B21BB8093610081E0809391
:1000E00060007894089542B381E090E09C01009014
:1000F000610002C0220F331F0A94E2F7242B22BBB7
:1001000023E02A95F1F7000022B30090610002C0BD
:10011000880F991F0A94E2F78095822382BB8AEFA9
:100120008A95F1F71EBC08950E94730006C0809165
:10013000620090916300892B19F580916000811114
:1001400006C08091640090916500892B81F383ED56
:1001500090E30197F1F700C000001EBC21B381E0DD
:1001600090E00090610002C0880F991F0A94E2F7A6
:100170008095822381BB80916400909165000895F1
:1001800080E090E008951F920F920FB60F92112415
:100190008F939F9380916000813079F48EB5816058
:1001A0008EBD89B7846089BF1DBC1CBC10926000E5
:1001B000109265001092640011C08CB59DB59093AB
:1001C0006500809364001EBC81E080936000109203
:1001D0006300109262001DBC1CBC1EBC9F918F91DD
:1001E0000F900FBE0F901F9018951F920F920FB691
:1001F0000F9211248F939F9380916000813091F42E
:100200008EB581608EBD89B7846089BF1DBC1CBC62
:1002100010926000109265001092640084B78F7B8A
:1002200084BF11C08CB59DB5909365008093640028
:100230001EBC81E080936000109263001092620007
:100240001DBC1CBC1EBC9F918F910F900FBE0F90C8
:100250001F9018951F920F920FB60F9211248F9333
:100260009F93809162009091630001969093630048
:10027000809362001DBC1CBC8EB581608EBD8FEF6B
:100280008ABB8BB380958BBB9F918F910F900FBED4
:100290000F901F901895BB9A8F9A97B3E1E0F0E00A
:1002A000DF01082E02C0AA0FBB1F0A94E2F7A92B98
:1002B000A7BB97B3DF01062E02C0AA0FBB1F0A948B
:1002C000E2F7A92BA7BB91B3DF01042E02C0AA0F4E
:1002D000BB1F0A94E2F7A92BA1BB91B3022E02C067
:1002E000EE0FFF1F0A94E2F7E92BE1BB93B791668B
:1002F00093BF95B5916695BD80936B0060936A003E
:100300004093690020936700089598B321E030E09E
:10031000A90100906B0002C0440F551F0A94E2F738
:10032000492B48BB98B300906A0002C0220F331FCC
:100330000A94E2F72095292328BB8CBF089548B37F
:1003400021E030E0B90100906B0002C0660F771F1A
:100350000A94E2F7962F9095942398BB98B3009057
:100360006A0002C0220F331F0A94E2F7292B28BB30
:100370008CBF089592B321E030E0A901009069009C
:1003800002C0440F551F0A94E2F7492B42BB92B3B7
:100390000090670002C0220F331F0A94E2F72095F5
:1003A000292322BB83BD089542B321E030E0B90187
:1003B0000090690002C0660F771F0A94E2F7962F3B
:1003C0009095942392BB92B30090670002C0220FD5
:1003D000331F0A94E2F7292B22BB83BD0895CF93E4
:1003E000C82F0E949F018C2F0E94D401CF910895A5
:1003F0000E94850180E00E94BA010895CF93C82F22
:1004000080E00E9485018C2F0E94BA01CF9108954F
:1004100011BA939A21E040E061E080E00E944B0134
:100420008FEF0E94EF0184E00E9449000E94940037
:10043000EC011EBC86E00E9449000E949400C8178F
:10044000D907B0F42FE986E891E021508040904030
:10045000E1F700C0000084E60E94F8012FE986E879
:1004600091E0215080409040E1F700C00000D8CFDB
:100470008C179D07A8F62FE986E891E0215080406F
:100480009040E1F700C0000084E60E94FE012FE9E1
:1004900086E891E0215080409040E1F700C00000E4
:0604A000BFCFF894FFCF6E
:0204A60001044F
:040000030000009267
:00000001FF
