S00D0000726F626F742E73726563F1
S113000012C0A2C0D3C02AC029C028C027C026C09D
S1130010FFC024C023C022C021C020C01FC01EC0F6
S11300201DC01CC01BC011241FBECFE5D4E0DEBF21
S1130030CDBF10E0A0E6B0E0E2E7F2E002C0059038
S11300400D92A236B107D9F720E0A2E6B0E001C0D4
S11300501D92A636B207E1F7FAD009C1D1CF82309A
S113006061F41EBC85B7816085BF8BB780648BBF8C
S11300708A9A81E08093600016C01EBC95B7946094
S113008095BF9BB790689BBF41B321E030E0B901B5
S113009002C0660F771F8A95E2F7CB01842B81BBE0
S11300A081E0809360007894089542B381E090E009
S11300B09C010090610002C0220F331F0A94E2F7F2
S11300C0242B22BB23E02A95F1F7000022B30090F1
S11300D0610002C0880F991F0A94E2F78095822379
S11300E082BB8AEF8A95F1F71EBC0895DEDF06C055
S11300F08091620090916300892B19F580916000D2
S1130100811106C08091640090916500892B81F370
S113011083ED90E30197F1F700C000001EBC21B30A
S113012081E090E00090610002C0880F991F0A945A
S1130130E2F78095822381BB8091640090916500F1
S1130140089580E090E008951F920F920FB60F92E9
S113015011248F939F9380916000813079F48EB540
S113016081608EBD89B7846089BF1DBC1CBC1092A0
S11301706000109265001092640011C08CB59DB5AA
S113018090936500809364001EBC81E080936000BE
S113019010926300109262001DBC1CBC1EBC9F9197
S11301A08F910F900FBE0F901F9018951F920F9272
S11301B00FB60F9211248F939F938091600081302A
S11301C079F48EB581608EBD89B7846089BF1DBC0A
S11301D01CBC10926000109265001092640011C063
S11301E08CB59DB590936500809364001EBC81E03E
S11301F08093600010926300109262001DBC1CBCCE
S11302001EBC9F918F910F900FBE0F901F90189559
S11302101F920F920FB60F9211248F939F93809188
S11302206200909163000196909363008093620052
S11302301DBC1CBC8EB581608EBD8FEF84BBAA9A99
S11302409F918F910F900FBE0F901F90189511BA28
S11302508D9A83E004DF4ADF1EBC2FE986E891E033
S1130260215080409040E1F700C00000F2CFF894A4
S1050270FFCFBA
S1050272010580
S903005E9E
