:100000000C942A000C9447000C94AF000C94E00070
:100010000C9447000C9447000C9447000C94470044
:100020000C9447000C9414010C9447000C94470066
:100030000C9447000C9447000C9447000C94470024
:100040000C9447000C9447000C9447000C94470014
:100050000C94470011241FBECFE5D8E0DEBFCDBF12
:1000600010E0A0E6B0E0ECE1FAE002C005900D92ED
:10007000A636B107D9F720E0A6E6B0E001C01D9290
:10008000AA36B207E1F70E9493010C940C050C9478
:10009000000011BA12BA863079F417BA84B78064B6
:1000A00084BF8BB780628BBF8E9A86E0809361009D
:1000B00081E08093600016C095B7946095BF9BB7B0
:1000C00090689BBF91B321E030E0082E02C0220F60
:1000D000331F0A94E2F7292B21BB8093610081E052
:1000E000809360007894089542B381E090E09C0191
:1000F0000090610002C0220F331F0A94E2F7242B04
:1001000022BB23E02A95F1F7000022B300906100A2
:1001100002C0880F991F0A94E2F78095822382BB60
:100120008AEF8A95F1F708950E94740006C08091C5
:10013000660090916700892B79F4809160008111AD
:1001400006C08091680090916900892B81F38091AD
:10015000680090916900089580E090E008951F92F2
:100160000F920FB60F9211248F939F93809160008E
:10017000813079F48EB581608EBD89B7846089BF86
:100180001DBC1CBC109260001092690010926800A7
:1001900010C08CB59DB590936900809368001EBC1B
:1001A00081E08093600010926700109266001DBC91
:1001B0001CBC9F918F910F900FBE0F901F901895B0
:1001C0001F920F920FB60F9211248F939F938091DD
:1001D0006000813091F48EB581608EBD89B78460F6
:1001E00089BF1DBC1CBC1092600010926900109267
:1001F000680084B78F7B84BF10C08CB59DB5909389
:100200006900809368001EBC81E0809360001092BA
:100210006700109266001DBC1CBC9F918F910F90CF
:100220000FBE0F901F9018951F920F920FB60F924E
:1002300011248F939F93809166009091670001969F
:1002400090936700809366001DBC1CBC8EB58160D6
:100250008EBD8BB380958BBB9F918F910F900FBEFE
:100260000F901F901895929A83EF91E00197F1F704
:1002700000C00000929883EF91E00197F1F700C071
:100280000000089585BB909891980E9433010895CD
:1002900081E00E944201089581B3876081BB12BA58
:1002A0008FEF84BB15BA83EC99E00197F1F700C09A
:1002B000000088E30E9442018EE00E9442019FE913
:1002C00026E881E0915020408040E1F700C0000026
:1002D0008CE00E9442010E944801089585BB81E2A2
:1002E0008A95F1F700009198909A81E28A95F1F74A
:1002F00000000E9433010895CF93DF93EC018881C1
:10030000882331F021960E946E0189918111FBCFE3
:10031000DF91CF910895813009F4605C862F806869
:100320000E9442010895CF93DF93CDB7DEB7E297E5
:100330000FB6F894DEBF0FBECDBF11BA939A80E31B
:1003400091E39A83898380E390E09C838B83FE0111
:1003500035968EE2DF011D928A95E9F70E944C01E5
:1003600002E610E0CE0101965C01882E9B2C689479
:10037000772471F884E00E9449000E944C010E9499
:1003800094006C0160E081E00E948B01DF92CF92CB
:100390001F930F93BF92AF920E942202A3EDB0E38E
:1003A0001197F1F700C00000882D992D0E947C0163
:1003B000BFE926E881E0B15020408040E1F700C06D
:1003C00000000E944801A7EAB1E61197F1F700C0CA
:1003D000000086E00E9449000E944C010E949400A7
:1003E0007C01FF928F931F930F93BF92AF920E9455
:1003F000220283ED90E30197F1F700C00000882D01
:10040000992D0E947C019FE9A6E8B1E09150A0409F
:10041000B040E1F700C000000E94480187EA91E681
:100420000197F1F700C000000FB6F894DEBF0FBED1
:10043000CDBFCE14DF0408F09DCFB99A88B38725CD
:1004400088BB98CFAEE0B0E0E8E2F2E00C94E304C1
:100450000D891E8986E08C831A8309838FEF9FE7BD
:100460009E838D83AE01475E5F4F6F89788DCE018D
:1004700001960E944402EF81F885E00FF11F10827F
:100480002E96E4E00C94FF04ABE0B0E0EAE4F2E086
:100490000C94D5046C017B018A01FC011782168241
:1004A000838181FFCCC1CE0101963C01F60193818D
:1004B000F70193FD859193FF81917F01882309F4D2
:1004C000BAC1853239F493FD859193FF81917F0103
:1004D000853229F4B60190E00E943B04E7CF912CCD
:1004E000212C312CFFE1F315D8F08B3279F038F460
:1004F000803279F08332A1F4232D20611DC08D322A
:1005000061F0803369F4232D216016C0832D826051
:10051000382EE32DE4603E2E2AC0F32DF8601DC076
:1005200037FC2DC020ED280F2A3040F08E32B9F470
:1005300036FC81C1232D2064322E19C036FE06C040
:100540008AE0989E200D1124922E11C0EAE02E9E82
:10055000200D1124222EF32DF0623F2E08C08C3680
:1005600021F4832D8068382E02C0883641F4F701CB
:1005700093FD859193FF81917F018111B3CF982FD6
:100580009F7D9554933028F40C5F1F4F9FE3998310
:100590000DC0833631F0833771F0833509F059C0CF
:1005A00021C0F801808189830E5F1F4F88248394C6
:1005B000912C530113C02801F2E04F0E511CF80199
:1005C000A080B18036FE03C0692D70E002C06FEFDD
:1005D0007FEFC5010E9430044C018201F32DFF77AB
:1005E0003F2E16C0280122E0420E511CF801A080C7
:1005F000B18036FE03C0692D70E002C06FEF7FEF5F
:10060000C5010E9425044C01F32DF0683F2E8201A4
:1006100033FC1BC0822D90E088169906B0F4B60119
:1006200080E290E00E943B042A94F4CFF50137FC6D
:10063000859137FE81915F01B60190E00E943B04F5
:1006400021102A9421E0821A91088114910471F7F3
:10065000E8C0843611F0893641F5F80137FE07C04D
:1006600060817181828193810C5F1F4F08C060811E
:100670007181072E000C880B990B0E5F1F4FF32D15
:10068000FF763F2E97FF09C09095809570956195F4
:100690007F4F8F4F9F4FF0683F2E2AE030E0A3013D
:1006A0000E947704882E861845C0853731F4232DA3
:1006B0002F7EB22E2AE030E025C0932D997FB92EEF
:1006C0008F36C1F018F4883579F0B5C0803719F04D
:1006D000883721F0B0C0E92FE061BE2EB4FE0DC016
:1006E000FB2DF460BF2E09C034FE0AC0292F2660FE
:1006F000B22E06C028E030E005C020E130E002C0A4
:1007000020E132E0F801B7FE07C06081718182818B
:1007100093810C5F1F4F06C06081718180E090E083
:100720000E5F1F4FA3010E947704882E8618FB2DB1
:10073000FF773F2E36FE0DC0232D2E7FA22E89146B
:1007400058F434FE0BC032FC09C0832D8E7EA82ED7
:1007500005C0B82CA32C03C0B82C01C0B92CA4FE32
:100760000FC0FE01E80DF11D8081803321F49A2D28
:10077000997EA92E09C0A2FE06C0B394B39404C00A
:100780008A2D867809F0B394A3FC11C0A0FE06C0A0
:10079000B21488F4280C922C9B180EC0B21460F48A
:1007A000B60180E290E00E943B04B394F7CFB2140C
:1007B00018F42B1802C0982C212CA4FE10C0B601EE
:1007C00080E390E00E943B04A2FE17C0A1FC03C09E
:1007D00088E790E002C088E590E0B6010CC08A2D61
:1007E000867859F0A1FE02C08BE201C080E2A7FC2E
:1007F0008DE2B60190E00E943B04891438F4B60102
:1008000080E390E00E943B049A94F7CF8A94F3012E
:10081000E80DF11D8081B60190E00E943B0481103B
:10082000F5CF222009F442CEB60180E290E00E948A
:100830003B042A94F6CFF6018681978102C08FEFA0
:100840009FEF2B96E2E10C94F104FC0105906150BE
:1008500070400110D8F7809590958E0F9F1F0895D6
:10086000FC016150704001900110D8F7809590957F
:100870008E0F9F1F08950F931F93CF93DF93FB015C
:10088000238121FD03C08FEF9FEF2CC022FF16C0F4
:1008900046815781248135814217530744F4A08152
:1008A000B1819D012F5F3F4F318320838C9326813F
:1008B00037812F5F3F4F3783268314C08B01EC01B4
:1008C000FB010084F185E02D0995892BE1F6D80123
:1008D00016968D919C911797019617969C938E93DF
:1008E0001697CE01DF91CF911F910F910895FA01D4
:1008F000AA27283051F1203181F1E8946F936E7F5F
:100900006E5F7F4F8F4F9F4FAF4FB1E03ED0B4E04F
:100910003CD0670F781F891F9A1FA11D680F791F90
:100920008A1F911DA11D6A0F711D811D911DA11DA1
:1009300020D009F468943F912AE0269F11243019B1
:10094000305D3193DEF6CF010895462F4770405D4C
:100950004193B3E00FD0C9F7F6CF462F4F70405DFB
:100960004A3318F0495D31FD4052419302D0A9F756
:10097000EACFB4E0A6959795879577956795BA9550
:10098000C9F700976105710508959B01AC010A2E16
:1009900006945795479537952795BA95C9F7620FED
:1009A000731F841F951FA01D08952F923F924F9291
:1009B0005F926F927F928F929F92AF92BF92CF92EF
:1009C000DF92EF92FF920F931F93CF93DF93CDB7F8
:1009D000DEB7CA1BDB0B0FB6F894DEBF0FBECDBF70
:1009E00009942A88398848885F846E847D848C8441
:1009F0009B84AA84B984C884DF80EE80FD800C814A
:100A00001B81AA81B981CE0FD11D0FB6F894DEBF2C
:0C0A10000FBECDBFED010895F894FFCF9C
:060A1C0001042575000035
:040000030000009267
:00000001FF
