:100000000C9462000C948A000C948A000C948A0070
:100010000C948A000C948A000C948A000C948A0038
:100020000C948A000C948A000C948A000C948A0028
:100030000C948A000C948A000C948A000C948A0018
:100040000C94F1030C948A000C94BF030C94990354
:100050000C948A000C948A000C948A000C948A00F8
:100060000C948A000C948A000000000023002600F3
:10007000290000000000240027002A0000000000E2
:10008000250028002B0004040404040404040202D4
:100090000202020203030303030301020408102007
:1000A0004080010204081020010204081020000012
:1000B0000008000201000003040700000000000027
:1000C0000000220511241FBECFEFD8E0DEBFCDBF58
:1000D00011E0A0E0B1E0ECE8F3E102C005900D9280
:1000E000A832B107D9F721E0A8E2B1E001C01D9222
:1000F000A63FB207E1F710E0C2E6D0E004C02197C6
:10010000FE010E947D07C136D107C9F70E949A05FA
:100110000C94C4090C940000CF92DF92EF92FF92EE
:100120000F931F93CF93DF936C017A018B01C0E093
:10013000D0E0CE15DF0589F0D8016D918D01D60193
:10014000ED91FC910190F081E02DC6010995892B7C
:1001500011F47E0102C02196ECCFC701DF91CF914F
:100160001F910F91FF90EF90DF90CF900895FC01C9
:10017000918D828D981761F0828DDF01A80FB11DDE
:100180005D968C91928D9F5F9F73928F90E0089502
:100190008FEF9FEF0895FC01918D828D981731F0BC
:1001A000828DE80FF11D858D90E008958FEF9FEF10
:1001B0000895FC01918D228D892F90E0805C9F4FE6
:1001C000821B91098F739927089584E491E00E941E
:1001D000D90021E0892B09F420E0822F0895FC0149
:1001E000848DDF01A80FB11DA35ABF4F2C91848DC0
:1001F00090E001968F739927848FA689B7892C93F5
:10020000A089B1898C9180648C93938D848D98138F
:1002100006C00288F389E02D80818F7D8083089558
:10022000EF92FF920F931F93CF93DF93EC0181E046
:10023000888F9B8D8C8D981305C0E889F989808102
:1002400085FD24C0F62E0B8D10E00F5F1F4F0F733E
:100250001127E02E8C8DE8120CC00FB607FCFACFE8
:10026000E889F989808185FFF5CFCE010E94EF00F2
:10027000F1CF8B8DFE01E80FF11DE35AFF4FF082A5
:100280000B8FEA89FB898081806207C0EE89FF8934
:100290006083E889F98980818064808381E090E0CF
:1002A000DF91CF911F910F91FF90EF900895CF9321
:1002B000DF93EC01888D8823C9F0EA89FB8980816E
:1002C00085FD05C0A889B9898C9186FD0FC00FB640
:1002D00007FCF5CF808185FFF2CFA889B9898C9181
:1002E00085FFEDCFCE010E94EF00E7CFDF91CF91E8
:1002F000089580E090E0892B29F00E94E5008111AB
:100300000C940000089590E0FC01E255FF4F3491F9
:10031000FC01E656FF4F2491FC01EA57FF4FE491A0
:10032000EE2309F43BC0332339F1333091F038F434
:100330003130A9F0323001F584B58F7D12C03730ED
:1003400091F03830A1F03430B9F4809180008F7D85
:1003500003C0809180008F77809380000DC084B5AA
:100360008F7784BD09C08091B0008F7703C08091E2
:10037000B0008F7D8093B000F0E0EE0FFF1FE458D7
:10038000FF4FA591B4918FB7F894EC91611103C020
:1003900020952E2301C02E2B2C938FBF0895CF9331
:1003A000DF9390E0FC01E656FF4F2491FC01EA57F1
:1003B000FF4F8491882361F190E0880F991FFC0121
:1003C000EE58FF4FC591D491FC01E458FF4FA59121
:1003D000B491611109C09FB7F89488812095822358
:1003E0008883EC912E230BC0623061F49FB7F894A0
:1003F0003881822F809583238883EC912E2B2C9338
:100400009FBF06C08FB7F894E8812E2B28838FBF3B
:10041000DF91CF910895009769F0FC0101900020D1
:10042000E9F73197AF01481B590BBC0184E491E017
:100430000C948C0080E090E008958F929F92AF9290
:10044000BF920F931F93CF93DF93CDB7DEB7A197E2
:100450000FB6F894DEBF0FBECDBF19A2423008F42C
:100460004AE08E010F5D1F4F842E912CA12CB12CE0
:10047000A50194010E945B07E62FB901CA01015052
:100480001109EA3014F4E05D01C0E95CD801EC9395
:10049000232B242B252B61F7C8010E940B02A19668
:1004A0000FB6F894DEBF0FBECDBFDF91CF911F9185
:1004B0000F91BF90AF909F908F9008954F925F9251
:1004C0006F927F928F929F92AF92BF92CF92DF9264
:1004D000EF92FF926B017C01B42E9B01AC010E9454
:1004E000BA09882319F080E191E027C0260137017D
:1004F000E89477F82FEF3FEF4FE75FE7C301B201D2
:100500000E94BA0981110DC02FEF3FEF4FE75FE75F
:10051000C301B2010E94F00718161CF484E191E0B7
:100520000CC02FEF3FEF4FE75FE4C701B6010E9419
:100530004809181684F488E191E0FF90EF90DF906D
:10054000CF90BF90AF909F908F907F906F905F9073
:100550004F900C940B022FEF3FEF4FE75FECC7017A
:10056000B6010E94F00787FDE6CF20E030E0A90148
:10057000C701B6010E94F00787FF11C0E091440156
:10058000F09145010190F081E02D6DE284E491E06D
:1005900009954C01F7FAF094F7F8F09402C0812C19
:1005A000912CA12C60E070E080E09FE3AB1441F05F
:1005B00020E030E040E251E40E94F507A394F6CF3A
:1005C0009B01AC01C701B6010E9484072B013C01CD
:1005D0000E9467086B017C010E9496089B01AC0198
:1005E000C301B2010E9483072B013C014AE0C7010D
:1005F000B6010E941D027C01E80CF91CBB2069F0C9
:10060000E0914401F09145010190F081E02D6EE20E
:1006100084E491E00995E80EF91EDB2CDD2021F140
:1006200020E030E040E251E4C301B2010E944D09F4
:100630002B013C010E9467084B01A12CB12C4AE020
:10064000C501B4010E941D02E80EF91EC501B401E6
:100650000E9496089B01AC01C301B2010E9483076E
:100660002B013C01DA94DACFC701FF90EF90DF90C5
:10067000CF90BF90AF909F908F907F906F905F9042
:100680004F9008950E94BF090F931F93CF93DF935C
:10069000EC018A81882321F061E088810E94CF01EA
:1006A00060E088810E94830183E090E00197F1F788
:1006B00061E088810E94830183E290E00197F1F775
:1006C00060E088810E9483018A81882321F060E0B4
:1006D00088810E94CF01298130E0F901E656FF4F61
:1006E0006491F901EA57FF4FE491F0E0EE0FFF1F2C
:1006F000E859FF4F859194910B811C812D813E819A
:100700003F70462F0E943B046115710581059105DC
:1007100039F0DC01CB010196A11DB11DBF7004C0F1
:100720008CE19BE2A6EAB2E0DF91CF911F910F919D
:1007300008951F920F920FB60F9211242F933F939B
:100740004F935F936F937F938F939F93AF93BF93D9
:10075000EF93FF9384E491E00E94EF00FF91EF910B
:10076000BF91AF919F918F917F916F915F914F91C9
:100770003F912F910F900FBE0F901F9018951F92D1
:100780000F920FB60F9211242F938F939F93EF9395
:10079000FF93E0915401F09155018081E0915A015D
:1007A000F0915B0182FD12C0908180915D018F5FAD
:1007B0008F7320915E01821751F0E0915D01F0E0AE
:1007C000EC5BFE4F958F80935D0101C08081FF91AE
:1007D000EF919F918F912F910F900FBE0F901F90CF
:1007E00018951F920F920FB60F9211242F933F93DB
:1007F0008F939F93AF93BF9380912D0190912E0182
:10080000A0912F01B091300130912C0123E0230FF2
:100810002D3720F40196A11DB11D05C026E8230F38
:100820000296A11DB11D20932C0180932D01909360
:100830002E01A0932F01B093300180912801909157
:100840002901A0912A01B0912B010196A11DB11D92
:100850008093280190932901A0932A01B0932B0142
:10086000BF91AF919F918F913F912F910F900FBEAC
:100870000F901F901895CF92DF92EF92FF920F93F7
:100880001F93E82FF92F05C00150110921093109E3
:1008900061F1908196239417B9F305C001501109B5
:1008A0002109310911F1908196239413F7CFC12CBE
:1008B000D12CE12CF12C0AC08FEFC81AD80AE80A13
:1008C000F80A0C151D052E053F0579F08081862359
:1008D000841791F36C2D7D2D8E2D9F2D1F910F91DF
:1008E000FF90EF90DF90CF90089560E070E080E09F
:1008F00090E01F910F91FF90EF90DF90CF900895BF
:100900001F93CF93DF93182FEB0161E00E94CF017B
:10091000209711F460E004C0CF3FD10539F461E0C5
:10092000812FDF91CF911F910C948301E12FF0E093
:10093000E255FF4FE491E330F9F048F4E130B9F0CB
:10094000E230A1F584B5806284BDC8BD34C0E73013
:10095000E9F0E83019F1E43049F5809180008062D7
:1009600080938000D0938B00C0938A0024C084B50C
:10097000806884BDC7BD1FC080918000806880935F
:100980008000D0938900C093880015C08091B0008A
:1009900080688093B000C093B3000DC08091B00018
:1009A00080628093B000C093B40005C0C038D10508
:1009B0000CF0B5CFAFCFDF91CF911F91089561E0DB
:1009C00070E08CE00E94800460E070E088E00E94AB
:1009D00080046DE770E088E00E94800460E08BE0B6
:1009E0000E94830161E08CE00E94830161E08DE060
:1009F0000E94830160E088E00E9483016FEF70E055
:100A000089E00E9480046FEF70E08AE00C9480041B
:100A100061E08BE00E94830160E08CE00E94830132
:100A200060E08DE00E94830161E088E00E94830124
:100A30006FEF70E089E00E9480046FEF70E08AE061
:100A40000C948004CF92DF92EF92FF92CF93DF93CA
:100A5000E4E4F1E01382128288EE93E0A0E0B0E0DB
:100A600084839583A683B78384E091E09183808318
:100A700085EC90E09587848784EC90E09787868763
:100A800080EC90E0918B808B81EC90E0938B828B5B
:100A900082EC90E0958B848B86EC90E0978B868B34
:100AA000118E128E138E148ECFEED1E01A8282E058
:100AB000888383E0898361E082E00E94CF0160E067
:100AC00089810E94CF0180E2C82E8EE4D82EE12CCD
:100AD000F12CCB82DC82ED82FE82C8EED1E01A825C
:100AE00084E0888385E0898361E084E00E94CF010F
:100AF00060E089810E94CF01CB82DC82ED82FE82A0
:100B0000C1EED1E01A8286E0888387E0898361E0C4
:100B100086E00E94CF0160E089810E94CF01CB82F4
:100B2000DC82ED82FE82DF91CF91FF90EF90DF902B
:100B3000CF900895789484B5826084BD84B5816037
:100B400084BD85B5826085BD85B5816085BD809198
:100B50006E00816080936E00109281008091810010
:100B60008260809381008091810081608093810008
:100B7000809180008160809380008091B1008460CA
:100B80008093B1008091B00081608093B00080912B
:100B90007A00846080937A0080917A0082608093EA
:100BA0007A0080917A00816080937A0080917A0047
:100BB000806880937A001092C100E0915401F09116
:100BC000550182E08083E0915001F0915101108243
:100BD000E0915201F09153018FEC808310925C01FF
:100BE000E0915801F091590186E08083E09156012F
:100BF000F0915701808180618083E0915601F091EE
:100C00005701808188608083E0915601F0915701FF
:100C1000808180688083E0915601F0915701808146
:100C20008F7D80838CE191E00E940B0282E291E053
:100C30000E940B0261E088E00E94CF0161E089E040
:100C40000E94CF0161E08AE00E94CF0161E08BE069
:100C50000E94CF0161E08CE00E94CF0161E08DE055
:100C60000E94CF0161E088E00E94CF0161E089E04D
:100C70000E94CF0161E08AE00E94CF01CCE1D0E088
:100C8000BB24B39401E010E08FEE91E00E94440396
:100C9000BE010E9447077695679580E090E00E942C
:100CA00096086093400170934101809342019093B4
:100CB000430188EE91E00E944403BE010E94470771
:100CC0007695679580E090E00E94960860933C01DD
:100CD00070933D0180933E0190933F0181EE91E03E
:100CE0000E944403BE010E9447077695679580E005
:100CF00090E00E9496082B013C01609338017093AC
:100D0000390180933A0190933B01C0904001D0900B
:100D10004101E0904201F090430120E030E040E2E8
:100D200051E4C701B6010E94480918161CF4B0929C
:100D3000310102C01092310120E030E040E251E484
:100D400060913C0170913D0180913E0190913F0185
:100D50000E94480918161CF4B092320102C0109289
:100D6000320120E030E040E251E4C301B2010E94D0
:100D7000480918161CF4B092330102C010923301D6
:100D8000209131018091320190E0820F911D2091DC
:100D90003301820F911D02971CF0B092350102C001
:100DA0001092350142E0C701B6010E945E0285E261
:100DB00091E00E940B0260913C0170913D01809195
:100DC0003E0190913F0142E00E945E0285E291E087
:100DD0000E940B02609138017091390180913A01B3
:100DE00090913B0142E00E945E0282E291E00E940B
:100DF0000B02E0903601F09037011E141F043CF501
:100E000080913501882319F12091340180913201BC
:100E100090913301213071F0882329F0992319F042
:100E20000E94080514C080913101882381F0992324
:100E300071F0F6CF992329F0882319F00E94DF047E
:100E400006C090913101992311F08111F7CF809163
:100E500031018111FFCF80913201882339F00E9446
:100E6000DF04EF2889F4109234010AC08091330125
:100E7000882351F00E940805EF2831F4B092340124
:100E800010933701009336010E947901FDCEAA1B11
:100E9000BB1B51E107C0AA1FBB1FA617B70710F065
:100EA000A61BB70B881F991F5A95A9F78095909597
:100EB000BC01CD010895A1E21A2EAA1BBB1BFD01A6
:100EC0000DC0AA1FBB1FEE1FFF1FA217B307E40729
:100ED000F50720F0A21BB30BE40BF50B661F771F81
:100EE000881F991F1A9469F7609570958095909561
:100EF0009B01AC01BD01CF010895EE0FFF1F0590CE
:100F0000F491E02D09945058BB27AA270E949B0713
:100F10000C940E090E94000938F00E94070920F085
:100F200039F49F3F19F426F40C94FD080EF4E09573
:100F3000E7FB0C94F708E92F0E941F0958F3BA1732
:100F4000620773078407950720F079F4A6F50C94DF
:100F500041090EF4E0950B2EBA2FA02D0B01B9011B
:100F600090010C01CA01A0011124FF27591B99F01F
:100F7000593F50F4503E68F11A16F040A22F232F2B
:100F8000342F4427585FF3CF469537952795A7957B
:100F9000F0405395C9F77EF41F16BA0B620B730B22
:100FA000840BBAF09150A1F0FF0FBB1F661F771F93
:100FB000881FC2F70EC0BA0F621F731F841F48F448
:100FC000879577956795B795F7959E3F08F0B0CFD1
:100FD0009395880F08F09927EE0F979587950895B8
:100FE0000E94D30808F481E008950E9409080C9437
:100FF0000E090E94070958F00E94000940F029F4E8
:101000005F3F29F00C94F70851110C9442090C949D
:10101000FD080E941F0968F39923B1F3552391F34A
:10102000951B550BBB27AA2762177307840738F057
:101030009F5F5F4F220F331F441FAA1FA9F335D0B4
:101040000E2E3AF0E0E832D091505040E695001C68
:10105000CAF72BD0FE2F29D0660F771F881FBB1F22
:10106000261737074807AB07B0E809F0BB0B802D00
:10107000BF01FF2793585F4F3AF09E3F510578F02C
:101080000C94F7080C9442095F3FE4F3983ED4F3C4
:10109000869577956795B795F7959F5FC9F7880F00
:1010A000911D9695879597F90895E1E0660F771F52
:1010B000881FBB1F621773078407BA0720F0621BE3
:1010C000730B840BBA0BEE1F88F7E09508950E940E
:1010D000270988F09F5798F0B92F9927B751B0F09A
:1010E000E1F0660F771F881F991F1AF0BA95C9F7AC
:1010F00014C0B13091F00E944109B1E008950C9400
:101100004109672F782F8827B85F39F0B93FCCF3B2
:10111000869577956795B395D9F73EF49095809528
:10112000709561957F4F8F4F9F4F0895E89409C048
:1011300097FB3EF490958095709561957F4F8F4F0A
:101140009F4F9923A9F0F92F96E9BB279395F69520
:10115000879577956795B795F111F8CFFAF4BB0F9E
:1011600011F460FF1BC06F5F7F4F8F4F9F4F16C002
:10117000882311F096E911C0772321F09EE8872F8C
:10118000762F05C0662371F096E8862F70E060E048
:101190002AF09A95660F771F881FDAF7880F9695C1
:1011A000879597F90895990F0008550FAA0BE0E865
:1011B000FEEF16161706E807F907C0F01216130619
:1011C000E407F50798F0621B730B840B950B39F459
:1011D0000A2661F0232B242B252B21F408950A26BF
:1011E00009F4A140A6958FEF811D811D089597F9FF
:1011F0009F6780E870E060E008959FEF80EC0895BD
:1012000000240A94161617061806090608950024E5
:101210000A9412161306140605060895092E03945F
:10122000000C11F4882352F0BB0F40F4BF2B11F4D3
:1012300060FF04C06F5F7F4F8F4F9F4F089557FD32
:101240009058440F551F59F05F3F71F04795880F34
:1012500097FB991F61F09F3F79F0879508951216CB
:1012600013061406551FF2CF4695F1DF08C0161677
:1012700017061806991FF1CF869571056105089428
:101280000895E894BB2766277727CB0197F908953F
:101290000E94D30808F48FEF08950E9460090C940F
:1012A0000E090E94000938F00E94070920F09523DA
:1012B00011F00C94F7080C94FD0811240C944209C9
:1012C0000E941F0970F3959FC1F3950F50E0551FC1
:1012D000629FF001729FBB27F00DB11D639FAA278B
:1012E000F00DB11DAA1F649F6627B00DA11D661FDA
:1012F000829F2227B00DA11D621F739FB00DA11DFB
:10130000621F839FA00D611D221F749F3327A00DB4
:10131000611D231F849F600D211D822F762F6A2F50
:1013200011249F5750409AF0F1F088234AF0EE0FB5
:10133000FF1FBB1F661F771F881F91505040A9F7E2
:101340009E3F510580F00C94F7080C9442095F3FD2
:10135000E4F3983ED4F3869577956795B795F7951E
:10136000E7959F5FC1F7FE2B880F911D9695879596
:1013700097F908950E94D308880B990B089581E08E
:0C13800090E0F8940C94C409F894FFCF9E
:10138C000000000010018C00D900B700CB00570101
:10139C006E616E00696E66006F7666003109320907
:0813AC0033000D0A00090000E6
:00000001FF
