S0120000747265655F756C7472612E73726563DB
S11300000C942A000C9447000C94DE000C944700D6
S11300100C9447000C9447000C9447000C94470040
S11300200C9447000C9410010C9447000C94470066
S11300300C9447000C9447000C9447000C94470020
S11300400C9447000C9447000C9447000C94470010
S11300500C94470011241FBECFE5D8E0DEBFCDBF0E
S113006010E0A0E6B0E0E2EFF2E002C005900D92ED
S1130070A236B107D9F720E0A2E6B0E001C01D9294
S1130080A636B207E1F70E9442010C9477010C9462
S1130090000011BA12BA1EBC95B7946095BF9BB705
S11300A090689BBF91B321E030E0082E02C0220F7C
S11300B0331F0A94E2F7292B21BB8093610081E06E
S11300C0809360007894089541B381E090E09C01AE
S11300D00090610002C0220F331F0A94E2F7242B20
S11300E021BB32B3AC010090610002C0440F551F24
S11300F00A94E2F7242F2095232322BB00C042B3A5
S11301009C010090610002C0220F331F0A94E2F7A1
S1130110242B22BB23E02A95F1F7000022B30090A0
S1130120610002C0880F991F0A94E2F78095822328
S113013082BB1EBC08950E94640006C080916200C8
S113014090916300892BB9F580916000811106C0FC
S11301508091640090916500892B81F383ED90E395
S11301600197F1F700C000001EBC21B381E090E0CC
S11301700090610002C0880F991F0A94E2F78095ED
S1130180822381BB809164009091650099230CF4D3
S113019001969C013595279547E551E0249FC001C0
S11301A0259F900D349F900D112468EE73E00E94FA
S11301B04F01CB0108958CEB91E008951F920F92AB
S11301C00FB60F9211248F939F938091600081301A
S11301D079F48EB581608EBD89B7846089BF1DBCFA
S11301E01CBC10926000109265001092640011C053
S11301F08CB59DB590936500809364001EBC81E02E
S11302008093600010926300109262001DBC1CBCBD
S11302101EBC9F918F910F900FBE0F901F90189549
S11302201F920F920FB60F9211248F939F93809178
S11302306200909163000196909363008093620042
S11302401DBC1CBC8EB581608EBDBA9A98B384E087
S1130250892788BB9F918F910F900FBE0F901F909D
S11302601895181619066CF420E030E0E9EFF0E078
S11302703197F1F700C000002F5F3F4F281739076F
S1130280A9F70895B89AC1E084E00E9449000E9449
S11302909B0028B32C2728BB0E943101F5CF97FB84
S11302A0072E16F4009407D077FD09D00E9463014D
S11302B007FC05D03EF4909581959F4F0895709565
S11302C061957F4F0895AA1BBB1B51E107C0AA1F6C
S11302D0BB1FA617B70710F0A61BB70B881F991FE3
S11302E05A95A9F780959095BC01CD010895F8948D
S10502F0FFCF3A
S10502F2010401
S90300926A
